:400000000010002011000000A9020000A902000008B501F001F800F04FF9C04610B51C4C12232360302000F06FFF80225200194B1A608023DB051849196018490A60184956
:40004000196018490A60184A1A60E022120117490A601749196017490A60174A1A602422164B1A601E32164B1A60013A154B1A600332154B1A60013A144B1A600022144BFE
:400080001A60002000F0D0FF1123236010BDC046300010400003004040FF00800803004042FF00800403004041FF00801003004044FF00800C03004043FF00802800034036
:4000C000300100401801004008010040000100400C02064008B572B6EE23154A136080210903144A1160144A1360144A13600022134B1A603632134B1A60263A124B1A6001
:40010000C022D201114B1A601823114A1360114A13600322104B1A60242310490B6010490A60104A1360FFF779FF00F01DF908BD000002400001024000030240000402407F
:4001400004013F4008000440000104400801044000020440180204400003044008030440000404400804044010B5064C2378002B07D1054B002B02D0044800E000BF01233A
:40018000237010BD3001002000000000FC18000008B5084B002B03D00748084900E000BF07480368002B00D108BD064B002BFBD09847F9E700000000FC1800003401002043
:4001C000B00000200000000008B500F091FC00F0C9FB00F0EFFC00F097FD00F0B7FC00F0ADFC00F05DFD00F027F904200021034A00F0A4F900F062FF08BDC0464C010020A4
:40020000F8B562B6FFF7E0FF0024012000F0BEFB002833D0002000F0D5FBE3001B19C0180A2101F04DFA041C1B4860431B4901F047FA85B2030400D5002528B2184B58430D
:40024000FA21890001F03CFA86B20004000C9623DB00984200D9181C9623DB00181A00F0C9FC01F042F8071C00F056F9830602D40C4B1D805E80381C01F03BF808200949C5
:400280000222002300F0B0FFC0B20028F6D100F083FF4307FBD4B8E7F797FFFF10270000050D00004C01002008B501F0FBFA03680C2B00D1FEE7FEE770B50F4E0F4D13E0DA
:4002C00029686B68AC68002202E001C901C30432A242FAD1E868002202E0002102C304328242FAD11035013E002EE9D101F0E0FAFFF786FFFEE7C0460100000078190000E1
:4003000008B500230AE0032B03D89A000949505800E009489900094A88500133282BF2D9FFF7D8FE0022064B1A6080229205054B1A6008BD00000000A902000000000020C3
:40034000A800002008ED00E0064B1B68002803D080221206134301E05B005B08014A13607047C04680033A4008B580231B06144A13601449144A1160144A13601449154ADF
:400380001160154A1360154A154B1A60154A164B1A60164A164B1A6080225202154B1A600322154B1A60154A154B1A60F122154B1A600022144B1A600120FFF7C5FF08BDBC
:4003C00000003040081000018800304000003140800004008800314000003840200000021800384002000001280038402000008020013840C001384008013F400100008046
:4004000000023F4008023F40000E3F4008B50A2000F0AEFC08BDC04608B500F01DF808BD08B5044A1368802109060B431360FFF7EDFF08BD0000094008B5064B1B78002B9F
:4004400004D1FFF7E9FF0122024B1A70FFF7E8FF08BDC0465001002010B50024194B1C60194A1A4B1A601A4B1A4A13601A4A14601A491B4A11601B4A13601B4B1C600A207A
:4004800000F080FC0A20032100F09AFC0A20174900F084FC164B1C60164B1C605222FF32154B1A60154B1C60154B1C60154B1C60154B1C70154B1C70154B1C80154B0022DF
:4004C0001A7010BD0000094000080040600009400701008000030940040309401000FE001003094000020940040209406D050000C80E0940880E0940480F0940080F0940D3
:40050000C80F0940880F0940880100208C010020860100208401002010B50A2000F032FC054B1C78E4B21A781F218A431A700A2000F01EFC201C10BD8C01002070B5061C38
:400540000D1C141E0BD00A2000F01CFC044B1C60044B1E80044B1D800A2000F009FC70BD90010020940100208A01002070B5A94B1B68002B00D09847A74B1C88A74B1D688F
:40058000A74B1E680223FF331D4235D0A54A13685B005B081360A44B1A7820218A431A70197810220A431A70A04B1B68DB060BD49F4B1A78984B1B889A420AD09A4A117867
:4005C00008230B43137004E0974A117802230B431370984A1168984B0B4013600023974A1360924A1360964A13708E4A1368802109060B43136009E1F30602D50022914B1A
:400600001A600A23334200D192E08F4B1B685B0758D58E4B1A688A4B1B78002B17D0012B49D18B4B1B88002B0DD00121894B1960894B1B681B19D2B21A700134844A13882D
:40064000013B13803AE00222824B1A6036E0834B1B8893422BD901217E4B1960804B1B88934202D99B1A9BB200E0002378490B80072B03D80121724B197014E0082B09D17D
:400680006C490B68A020000203430B6000216B4B196008E067490B688020800103430B600821664B1960624B1A70141C06E00222684B1A6002E0002000F06EFB0422694B4C
:4006C0001A6035E05B4B1B689B0431D5B3070DD5654B1B681F211940564A1068564B03401360012014E00821012011E0584B1988083989B219800829F5D8002008E0564B76
:400700001B681B19514A1268D2B21A70013401390029F4D1002808D1464A1368802109020B4313600022454B1A600C224D4B1A60B3074AD5EB0615D50023404A13603B4A44
:4007400013603B4B1B78A34201D1022300E00A232B40354A11780B4320218B4313700022374B1A706B062ED52F4A117820230B4313702F4B1B781C1C3C4A1268D20612D5F5
:40078000364A1288D31A324A1380394B1A68802149020A431A601968364A0A401A601022224B1A6002E00422244B1A600122324B1A603249194B19603149086810230343C6
:4007C0000B60244B1A60154B1D60154B1B685B071CD51F4B1B88002B0CD01F4B1B681B191B78DBB2274A13600134194A1388013B138002E0FF22234B1A60234B1B681F223A
:400800001340082BE5D10F3A204B1A60024B1C8070BDC0465401002086010020400F0940000E0940000009408C010020880F09408401002060000940FF5FFFFFC80F094087
:4008400088010020880E0940CC0F094040030940580100206C00094090010020940100208A010020C00F0940080309406400094004020940FFFFFEFF800E0940FF0F0000B9
:40088000480F09404002094008020940800F094010B5041C808E002100F046FAA268244B1B68002B02DA80235B0300E000231343204A1360204BE2681A60204BA2691A6045
:4008C0001F4BE2691A601F4B22691A601E4B62691A601E4A002111601D4B1960A16A1160626A1A6001221B4B1A601B4B1B68EF32A1680A40402A01D0002A04D1174A1340C1
:400900000122134304E001229343802292051343114A1360002307E09A0011498C466244802149001160013362689A42F4D810BD80033A4000003A4004003A4018003A4039
:400940001C003A4010003A4014003A4028023A4038023A4018023A4030003A40FFFFFFDF80003A40074B1B685B0306D5054A1368802149020B43136002E00122024B1A600C
:400980007047C04604003A4024003A40011C431E012B11D8094A0A4B1B6801201840013A002803D18B0701D5002AF4D1002804D00122034B1A6000E000207047FFFFFF03FB
:4009C00010023A4010B5041C104B1A68D3009B1ADB000F4AD3185B68834202D8002000F0DBF90A4B1A68D3009B1ADB00084AD3185B68A34207D9A400064B9C4664442068B6
:400A00000004000C00E0002000B210BD5C0100200019000080013A40F0B5474680B4214B1B79002B20D039E0630000211E4A99521E4B9846FE00F51BED004544E96A1C4BA0
:400A4000C818490000F03CFE00B2A300194A9850F31BDB0042469A586B68D318013BA34200D10137013401E000270024002CDBD00F20032100F0A4F90F200F4900F08EF922
:400A8000084B5B79002B09D10122064B5A71074C201CFFF7FDFE226A084B1A6004BC9046F0BDC0465C0100209C010020001900000000710298010020150B000020003A4070
:400AC00008B5094B1B68002B0CDB084B1B68002BFBDB054A1368802109060B4313600A2000F07EFA08BDC04600003A40A0023A4008B5074B1B79DB0706D4FFF78DFF044A1C
:400B0000117901230B431371FFF7DAFF08BDC0465C010020014B1A681A60704710023A40044A1368802109060B431360F022024B1A60704700023F4004023F40024A1168FE
:400B400001230B431360704704023F4008B5064B1B78002B04D10122034B1A70FFF7E0FFFFF7ECFF08BDC046640100200222064B1A6080221206054B1A600422044B1A6050
:400B8000013A044B1A607047680100200000304008003040140F3040044A1168044B1B680B43802109010B4313607047080030406801002008B5064B1B79002B04D1FFF7D3
:400BC000D5FF0122024B1A71FFF7E6FF08BDC046680100200004000C014B18607047C046880101400004000C014B18607047C046940101400004000C014B18607047C046A4
:400C00008C01014038B5041C0D1C00F06EFBAC40024B1C6000F06DFB38BDC0460800014008B500F062FB064A116804230B43136000F05FFB04201821FFF7E4FF08BDC04600
:400C400000000140014B18607047C046B801014038B5104C8023DB042360236880225202134323609625ED00281CFFF7B3FF236823600C22084B1A600120FFF7E3FF1C223C
:400C8000064B1A60281CFFF7ADFF96208000FFF7B1FF38BD80010140A4010140A801014008B5064B1B78002B04D1FFF7D1FF0122024B1A70FFF7B4FF08BDC04670010020BA
:400CC0000222064B1A6080221206054B1A600022044B1A600332044B1A607047740100200000314008003140140F3140044A1168044B1B680B43802109010B4313607047C4
:400D0000080031407401002008B5064B1B79002B04D1FFF7D5FF0122024B1A71FFF7E6FF08BDC0467401002010B5064A13680724234000021843CB00FF211940014311608F
:400D400010BDC04608030040024A1168024B0B401360704700000640FFFFFFBF034B18688023DB05184000D001207047000006401F2318401E3B8340181C014B18607047D0
:400D800000E100E01F2318401E3B8340181C014B1860704780E100E001BE704738B5041C0D1C182802D90020FFF7F6FFA400034B9C4664442068256038BDC0464000002016
:400DC00070B5041C0E1E032E02D90020FFF7E4FF182C02D90020FFF7DFFF03252540ED00063500F082FAA408A400074B9C46644423680322AA409343AE40351C1D43256089
:400E000000F077FA70BDC04600E400E010B5041C06E0084B586800F05FFA074B9C46644480231B029C42F4D8024B9868604300F053FA10BDB40000200080FFFF30B583B089
:400E400000F0E0F8002848D000F04FFA041C244B1B6807221A409200131C1833214A12681207920FD3401A1C1F4B19681F4B19401F4B53438020C00184466344DB0B013B06
:400E80005B055B0D0B43A02149031943192A02D8184A13430BE0184BD31818781A3A174B9B5CC318FF2B00D9FF239B050B430E4A1360134D2B680193302000F01DFA114A76
:400EC00013688021C9050B4313601420FFF79EFF019B2B60201C00F00CFA03B030BDC046080F0340280003400800064000F800C040420F000000D43FCDF1FF0F38190000F5
:400F00003000104000000640F0B583B0041E182C0BD01C2809D0202807D0242805D0282803D02C2801D0302849D100F0DEF90190FFF714FF002803D0FFF706FF012600E05D
:400F40000026214A136807218B4313601F4BE3181B78DBB21E4A13601E4A13688B4313601D4803687F229343191C1C4BE3181B7813400B430360322000F0AEF9182C16D9E7
:400F8000114F3B680725AB431A1C231C1C3B9B082B4013433B60322000F09EF93A68AA43231C183B9B082C1C1C4014433C60012E01D1FFF743FF019800F09BF902E00020BD
:400FC000FFF7EAFE03B0F0BD080F0340CDF1FF0F0C0F0340100F0340180F0340B4F1FF0F08B5034B1B7B584300F076F908BDC046B4000020024B1868800F80077047C046D6
:401000000C020640034B1B68002B01DA012000E00020704700000640014A024B1A6070476588EDAC3800034010B5041CFFF7E2FFA0421AD0144A136803218B431360134B79
:401040001B689B0F01D17C2001E086204000FFF7C7FF00F04AF90D4A13689B009B08A40FA4071C43146000F044F9074B1B6803229343064A1268920F01D1023200E001226D
:401080001343014A136010BD140206400C02064008B50820FFF76CFE08BDC04608B500F01DF808BD08B5044A1368802109060B431360FFF7EDFF08BD0000074008B5064B15
:4010C0001B78002B04D1FFF7E9FF0122024B1A70FFF7E8FF08BDC0467C01002010B50024194B1C60194A1A4B1A601A4B1A4A13601A4A14601A4A14601A4A13601A4B1C6091
:401100000820FFF73FFE08200321FFF759FE08201649FFF743FE164B1C60164B1C60164B1C601422FF32154B1A60154B1C60154B1C60043AFF3A144B1A70144B1C80144BB3
:401140001C60144B1C6010BD0000074077080080600007400701008000030740040307401003074000020740040207404D130000C80E0740880E0740480F0740080F0740F8
:40118000C80F0740880F07409E010020AA010020B0010020A401002010B50820FFF7F2FD074B1B889BB21C1C064A1278920601D504241C430820FFF7DBFD201C10BDC046F3
:4011C000AA0100209E010020054B1B682022134000D0082301221343024A13607047C0466400074068000740F0B583B001900C1C171C1D1C002919D0284B1B78102B0AD188
:401200000820FFF7BFFD264B1B68DB0701D508260FE000260DE0214B1B78602B08D1214A138808218B431380002602E0042600E00426002E2BD12822184B1A7000231A4AE1
:4012400013601A4A13601A4B1F601A4B1C60EAB2194B1A70019B5C00FF231C40114A138802218B431380154A154B1A604023154A1360154A1360EB0704D5FFF7A5FF134BE2
:401280001C6004E0114B1C600222114B1A600820FFF76EFD301C03B0F0BDC0469E01002064000740AA010020A0010020A4010020AC010020B4010020A80100201703000081
:4012C000000F0740800F0740880F07404002074068000740000000000230800803D001300238FCD1C046C0467047EFF3108072B6704780F31088704738B5041CFFF7F5FF1A
:40130000051C102C05D8104A136803218B43136016E0202C07D80C490B6803229343023A13430B600CE0302C07D807490B6803229343013A13430B6002E00020FFF72CFD56
:40134000281CFFF7D6FF38BD3000104010B5B94B1B68002B00D09847B74B1B68DB0702D50022B64B1A60B64B1B789B0628D5B54B1B68DB0507D5B44A1188C0239B000B4314
:401380001380012300E00023AE4A1268D20706D5AD4A118890239B000B4313800123002B0FD0A74A1278D20701D5012200E00222A549088802430A800021A14A117000E055
:4013C00000239F4A1278920600D417E19D4A1268D20611D510229D4B1A60994B1B78DB0701D5012300E00223974A11880B4313801022934B1A701BE1914A1278120720D584
:40140000904A126892070AD50222904B1A608E4A118888239B000B431380012311E0884A1278D20703D52521854A117009E02421834A1170864A1268002A02D01439854A39
:4014400011607F4A1278520700D4AEE07C4A1278D20749D5804A1268120727D57F4A12687F4909681F240C407E4909686418141B082C09D8002C16D17B4A11687B4B0B40E8
:401480001360012308340EE008240CE0754A116877480068411877480068C0B20870116801311160013C002CF0D119E06A4A1268520715D56B4A11686D48006841186D4881
:4014C0000068C0B208701168013111601168634A1268914203D20421674A116000E001236649674A116060E0564A1268920726D50222564B1A60634A13681F2119401368B1
:4015000080221202134000D00123CB185E4A1168CB1A136012685D4B1A604B4A118884239B000B4313805A4B1A68802149020A431A601968574A0A401A60012335E0564ACC
:401540001268D2061ED427E04F4A1168404A126891421DD23E4A1268013A4B4909688A4204D140224D490A603A490A60464A11684B48006841180978C9B24A480160116851
:40158000013111603F4A12681F210A40082ADBD11021424A116008E03F4A1268520604D5394B1A68394B1A600123002B40D02E4A11682E4B0B40136000233B4A1360254ABE
:4015C00013603A4B1B789B070ED51D4B1B78DB0701D5092300E00A231B4A11880B4313806022174B1A7023E0314B1B689B0601D5182200E01022204B1A6019E0104B1B7811
:40160000DB0615D42B4A13685B005B08136010210B4B1970144B186827490140196018682649014019601368802109060B43136010BDC046800100208C0E0740880E0740DF
:401640009E0100200C0F0740AA010020000F0740AC010020880F0740CC0F0740BC01002008030740B001002060000740FFFEFFFFB80100204003074068000740ED0F0000AB
:40168000C00F074008020740A0010020A401002004020740FFFFFEFF8C0F0740800F0740B401002040020740C80F0740A80100206400074000000740FF5FFFFFFFFCFFFFB1
:4016C00003460B437FD4002243088B4274D303098B425FD3030A8B4244D3030B8B4228D3030C8B420DD3FF22090212BA030C8B4202D31212090265D0030B8B4219D300E03D
:40170000090AC30B8B4201D3CB03C01A5241830B8B4201D38B03C01A5241430B8B4201D34B03C01A5241030B8B4201D30B03C01A5241C30A8B4201D3CB02C01A5241830AB9
:401740008B4201D38B02C01A5241430A8B4201D34B02C01A5241030A8B4201D30B02C01A5241CDD2C3098B4201D3CB01C01A524183098B4201D38B01C01A524143098B427A
:4017800001D34B01C01A524103098B4201D30B01C01A5241C3088B4201D3CB00C01A524183088B4201D38B00C01A524143088B4201D34B00C01A5241411A00D20146524103
:4017C000104670475DE0CA0F00D04942031000D34042534000229C4603098B422DD3030A8B4212D3FC22890112BA030A8B420CD3890192118B4208D3890192118B4204D301
:4018000089013AD0921100E08909C3098B4201D3CB01C01A524183098B4201D38B01C01A524143098B4201D34B01C01A524103098B4201D30B01C01A5241C3088B4201D3FB
:40184000CB00C01A524183088B4201D38B00C01A5241D9D243088B4201D34B00C01A5241411A00D20146634652415B10104601D34042002B00D54942704763465B1000D3CD
:40188000404201B5002000F00BF802BD0029F8D003B5FFF715FF0EBC4243891A1847C0467047C046014B18687047C046280100200E4B70B500251E1C0D4CE41AA410A542B6
:4018C00004D0AB00F35898470135F8E700F042F8084B00251E1C084CE41AA410A54204D0AB00F35898470135F8E770BD60190000601900006019000068190000000000008A
:401900000000000001000000400020508C000490DA030200020002000002000E00000000010000000000000000000000B00400000100000017000000EEDBC9B9AA9B8E8276
:40194000766B60564D443B332C241D17100A040043000000F8B5C046F8BC08BC9E4670479101000001030000F8B5C046F8BC08BC9E4670476901000088190000B0000020EF
:40198000800000009000000000000000010000000000E02EC05D00001800000000366E0100000000000000000000000000000000000000000000000000000000000000002E
:4019C000501900000000000000000000000000000000000000000000000000000000000000000000000000000000000000000000000000000000000000000000000000007E
:401A0000C8000020000000000000000000000000000000000000000000000000000000000000000000000000000000000000000000000000000000000000000000000000BE
:401A40000000000000000000000000000000000000000000000000000000000000000000000000000000000000000000000000000000000000000000000000000000000066
:401A80000000000000000000000000000000000000000000000000000000000000000000000000000000000000000000000000000000000000000000000000000000000026
:401AC00000000000000000000000000000000000000000000000000000000000000000000000000000000000000000000000000000000000000000000000000000000000E6
:401B000000000000000000000000000000000000000000000000000000000000000000000000000000000000000000000000000000000000000000000000000000000000A5
:0200000490303A
:020000007E8EF2
:0200000490402A
:200000000000000000000000000000000000000000000000000000000000000000000000E0
:0200000490501A
:0C00000000021C0011AC00011C07903A2B
:0200000490600A
:0100000001FE
:00000001FF